:1000000019C028C027C04BC026C024C023C022C0AE
:1000100021C020C01FC01EC01DC084C01BC01AC08C
:1000200019C018C017C016C015C014C013C012C024
:1000300011C010C011241FBECFEFCDBFDFE3DEBF64
:100040002FE3A0E0BFE301C01D92A230B207E1F7A9
:100050008AD0A4C1D5CF1F920F920FB60F92112450
:100060008F9384E0809329048091080486FF0FC059
:100070008091013F82302CF48091013F8F5F80930B
:10008000013F8F910F900FBE0F901F901895809198
:10009000013F8F3FB4F38091013F8150F0CF1F9219
:1000A0000F920FB60F9211248F939F9384E0809349
:1000B00009048091003F83FD26C08091003F886045
:1000C0008093003F1092400A86E08093410A10928C
:1000D0004A0A10924B0A82E08093400A80E49FE132
:1000E00080934C0A90934D0A81E08093450A809159
:1000F000400A81608093400A9F918F910F900FBEBC
:100100000F901F9018951092400A8091003F877FB2
:100110008093003F8091003F82608093003F109267
:10012000013FEACF1F920F920FB60F9211248F93C7
:1001300081E08093460A8091003F877F8093003F53
:100140008091080482FF0BC08091003F8160809302
:10015000003F8F910F900FBE0F901F9018958091C8
:10016000003F8460F4CF88ED91E084BF90936000FD
:1001700090E084BF909361008AEB8093000483E059
:10018000809320048BE08093120488E080933204F3
:10019000EFE1F3E03197F1F700C0000090913204F5
:1001A000936090933204809316048093330480E12B
:1001B00080930504EFE1F3E03197F1F700C0000010
:1001C00080930604EFE1F3E03197F1F700C00000FF
:1001D00080930504EFE1F3E03197F1F700C00000F0
:1001E000809306048FE193E00197F1F700C00000CF
:1001F000789455E080E192E031E040E82091013FC1
:1002000021110CC02091003F211108C0F894509397
:1002100050007894889510925000F0CF2091013FC3
:10022000222339F1809305042091013F12160CF02E
:1002300089C02091013F21502093013F4093050444
:100240002091003F21FF77C02091003F2D7F209318
:10025000003FEFEFFCE73197F1F700C0000010928C
:10026000013F40930604F5EDFA95F1F70000809305
:1002700006042091003F20FF20C02091003F2E7FE8
:100280002093003F80930504909325042091003F24
:1002900021FF7AC02091003F2D7F2093003FEFEF98
:1002A000FCE73197F1F700C0000090932604F5EDCC
:1002B000FA95F1F70000809306042091003F22FF99
:1002C00015C02091003F2B7F2093003F80930504B1
:1002D000909325042091080422FF5BC0909326048C
:1002E000E5EDEA95F1F70000809306042091003FC8
:1002F00021FF84CF80930504EFE8F1E03197F1F717
:1003000000C0000080930604EFE8F1E03197F1F7B8
:1003100000C0000080930504EFE8F1E03197F1F7A9
:1003200000C0000080930604EFE8F1E03197F1F798
:1003300000C0000063CFEFE7F2E03197F1F700C0B3
:1003400000008FCF2091013F2F5F2093013F30931A
:1003500025042091003F21FF10C02091003F2D7FF8
:100360002093003FEFEFFCE73197F1F700C000006A
:100370001092013F3093260476CFEFE7F2E03197F9
:10038000F1F700C00000F6CFEFE7F2E03197F1F7A8
:100390008ACF2AE62A95F1F700C09CCFF894FFCFC8
:00000001FF
