:1000000019C033C032C0D3C3ACC32FC02EC02DC063
:100010002CC02BC02AC029C028C00EC426C025C0B1
:1000200024C023C022C021C020C01FC01EC01DC0CC
:100030001CC01BC011241FBECFEFCDBFDFE3DEBF4E
:100040001FE3A0E0BFE3EAE4F9E002C005900D92EF
:10005000A430B107D9F72FE3A4E0BFE301C01D929C
:10006000AA30B207E1F7EDD16EC4CACF8093083F42
:100070009093093F0895E0E0F4E080E88583A8E0EC
:10008000B1E01197F1F700C00000868383EC99E09E
:100090000197F1F700C000000895E0E0F4E080E887
:1000A0008583A3E9B1E11197F1F700C000008683D1
:1000B0008FEC97E00197F1F700C000000895E0E0B1
:1000C000F4E080E88583A8E0B1E01197F1F700C083
:1000D0000000868388E091E00197F1F700C00000FE
:1000E0000895E0E0F4E080E88583A8E0B1E01197AE
:1000F000F1F700C0000086838AE193E00197F1F7F1
:1001000000C000000895CF93DF93D82FC0E003C054
:10011000D6DFD695CF5FC83020F4D0FFF9CFE1DF2E
:10012000F8CFDF91CF910895CF93C82FB6DF89EB39
:10013000EADF86E4E8DF8C2FE6DF8C2F8095E3DFB3
:100140009ADFCF9108958EE0EFDF089586E1ECDF2E
:10015000089585E1E9DF089584E1E6DF0895E0E0B0
:10016000F4E080E88583A8E0B1E01197F1F700C0E2
:10017000000086838AE193E00197F1F700C0000058
:100180000895EDDFECDF8BEA9DE00197F1F700C009
:1001900000000895E0E0F4E080E88583A8E0B1E0A5
:1001A0001197F1F700C00000868388E091E0019785
:1001B000F1F700C000000895E0E0F4E080E88583F6
:1001C000A3E9B1E11197F1F700C0000086838FEC3D
:1001D00097E00197F1F700C00000C1DFC0DFBFDF8B
:1001E000BEDFD8DFD7DFD6DFBADF08950F931F93C6
:1001F000CF93DF93082F8091023F801721F013E007
:100200000093023F13C011E0FBCFC4DFD695CF5F50
:10021000C73020F4D0FFF9CFA2DFF8CFB2DF115002
:1002200083E991E10197F1F700C00000112321F06B
:10023000C3DFD02FC0E0ECCF043029F0DF91CF91A5
:100240001F910F9108959FE621E181E09150204098
:100250008040E1F700C00000F1CF8EE0C7DF0895D5
:1002600085E0C4DF089584E0C1DF089580E012C016
:1002700090E190930504E7EAF1E63197F1F700C0C9
:10028000000090930604E7EAF1E63197F1F700C029
:1002900000008F5F823060F30895E091083FF09195
:1002A000093F208131812130310509F00895DEDFD9
:1002B000FDCF82E08093250406C087E893E1019793
:1002C000F1F700C000008091080482FFF6CF82E0C1
:1002D000809326048FE097E20197F1F700C00000B9
:1002E0000895E091083FF091093F2081318121304C
:1002F000310521F02330310519F00895DADF089532
:1003000025DF089592E090932504811110C08FE3BA
:100310009CE90197F1F700C0000082E08093260479
:100320008FE097E20197F1F700C0000008952FEFEA
:1003300089E698E1215080409040E1F700C000003C
:10034000ECCFE091083FF091093F208131812230CC
:10035000310549F02330310541F02130310509F0F4
:100360000895D0DF089579DF0895EDDEF9CF91E0AB
:1003700090932504811110C08FE39CE90197F1F758
:1003800000C0000081E0809326048FE097E201978F
:10039000F1F700C0000008952FEF89E698E12150A1
:1003A00080409040E1F700C00000ECCFE091083FB2
:1003B000F091093F208131812230310549F023300D
:1003C000310541F02130310509F00895D0DF08955D
:1003D00047DF0895BEDEF9CF90E8909305048111C0
:1003E00010C08FE39CE90197F1F700C0000080E89E
:1003F000809306048FE097E20197F1F700C00000B8
:1004000008952FEF89E698E1215080409040E1F770
:1004100000C00000ECCFE091083FF091093F20813F
:1004200031812230310549F02330310541F021304E
:10043000310509F00895D0DF089515DF08958CDEA9
:10044000F9CF88ED90E084BF9093600093E184BF82
:10045000909361008091021082FDFCCF90E080E0DB
:1004600040D26F3E7E4B8D4A9E4DA9F18091021085
:1004700082FDFCCF4FEE5EEB6DEA7EED90E080E01A
:1004800042D28091021082FDFCCF61E084E090E0D6
:100490002FD281E090E08093003F9093013FA0E055
:1004A000B4E08AEB8C93E0E2F4E083E080838BE0BD
:1004B00052968C93529788E0828BCFE4D3EC2197AD
:1004C000F1F700C0000092899360928B56968C934E
:1004D000838B80E017C08091021082FDFCCF84E006
:1004E00090E0F7D190E08093003F9093013FD7CF09
:1004F000DFE7EAE1F6E0D150E040F040E1F700C08C
:1005000000008F5F9091080492FD02C0853080F357
:10051000853051F12FE33DE083E0215030408040B1
:10052000E1F700C000008091003F9091013F0097EB
:1005300011F0049731F481E090E08093003F9093B4
:10054000013F80E07BC0E0E0F4E080E18583AFE440
:10055000B3EC1197F1F700C000008683CFE4D3EC31
:100560002197F1F700C000008091080482FFEBCFD3
:1005700078941092003F1092013F8091073F82FDD6
:1005800028C08091073F80FFF8CF8091073F8E7F82
:100590008093073F8091003F9091013F8430910507
:1005A00031F0992701968093003F9093013FE0E05E
:1005B000F4E080E18583AFE4B3EC1197F1F700C07C
:1005C00000008683CFE4D3EC2197F1F700C0000050
:1005D000D4CF8091073F8B7F8093073F03C080E19A
:1005E000809305048091080482FFF9CF80E1809315
:1005F00006048091021082FDFCCF6091003F84E0F0
:1006000090E076D1DFE3E2E4FFE0D150E040F0405B
:10061000E1F700C0000087CFE0E0F4E090E19583CF
:10062000AFE4B3EC1197F1F700C000009683CFE47C
:10063000D3EC2197F1F700C000008F5F9091003F4D
:10064000891750F380E09FE311DD78941092073F03
:1006500041C08091063F8823D9F080E18093050452
:100660008091063F18160CF049C08091063F8150DA
:100670008093063F8091073F81FF3DC08091073FF7
:100680008D7F8093073F81E0C6DE80E18093060482
:100690008091073F80FF16C08091073F8E7F809337
:1006A000073F80E1809305048091073F81FF3AC0B6
:1006B0008091073F8D7F8093073F81E042DE80E19C
:1006C000809306048091073F82FD2FC08091073FF1
:1006D00081FD38C08091063F8111BBCF8091073FDB
:1006E0008111B7CFF894E0E5F0E085E0808378945D
:1006F00088951082EFCF80E08EDEC7CF8091063FD5
:100700008F5F8093063F8091073F81FF08C08091F3
:10071000073F8D7F8093073F81E048DEB6CF80E0C2
:1007200045DEB3CF80E00DDECACF8091073F8B7FDF
:100730008093073FC0E0D4E010E11D8380E0D1DD6D
:100740001E83C4CF80E0A9DD8091003F9091013FDE
:10075000019709F4BFCF8091073F8D7F8093073FBA
:10076000B9CF1F920F920FB60F9211248F9384E08E
:10077000809329048091080486FF0FC08091063F72
:1007800088232CF08091063F81508093063F8F9103
:100790000F900FBE0F901F9018958091063F18166E
:1007A000B4F38091063F8F5F8093063FF0CF1F9296
:1007B0000F920FB60F9211248F939F93EF93FF9395
:1007C00084E0809309048091073F83FF17C0109253
:1007D000400A8091073F877F8093073F8091073FC2
:1007E00082608093073F1092063FFF91EF919F91A7
:1007F0008F910F900FBE0F901F9018958091073F1B
:1008000088608093073FE0E4FAE0108286E08093FE
:10081000410A10924A0A10924B0A82E0808388EEC5
:1008200093E080934C0A90934D0A81E08093450AAF
:10083000808181608083D9CF1F920F920FB60F9273
:1008400011242F938F939F93EF93FF9381E08093D5
:10085000460AF8948091043F9091053F0196809359
:10086000043F9093053F8091043F9091053F789419
:10087000843F9140DCF08091073F877F8093073F62
:10088000F8941092043F1092053F789480910804E8
:1008900082FF06C08091073F81608093073F0FC0B1
:1008A0008091073F84608093073F09C010924A0AF5
:1008B00010924B0AE0E4FAE0808181608083FF912E
:1008C000EF919F918F912F910F900FBE0F901F90DE
:1008D000189503D0808199270895FC01E050FC4EC3
:1008E00008950E946D0460817181828193810895D1
:1008F000262F0E946D040080021619F00E949004B9
:100900000197019708950396272F0E9479040E946A
:100910007804252F0E947904242F0C947904262F23
:10092000AF93BF93E0E0F0E1328131FDFDCFDC0118
:10093000A050BC4E2C932DE924BF23E020830196C8
:0A094000BF91AF910895F894FFCF26
:04094A000100FF00A9
:00000001FF
